:020000041000EA
:1000000000B5324B212058609868022188439860DF
:10001000D860186158612E4B002199600221596106
:100020000121F02299502B49196001219960352056
:1000300000F044F80222904214D00621196600F024
:1000400034F8196E01211966002018661A6600F04E
:100050002CF8196E196E196E052000F02FF8012189
:100060000842F9D1002199601B49196000215960AB
:100070001A491B48016001219960EB211966A021F2
:10008000196600F012F800219960164914480160C1
:100090000121996001BC002800D000471248134993
:1000A000086003C880F30888084703B5996A0420EC
:1000B0000142FBD001200142F8D103BD02B5186610
:1000C0001866FFF7F2FF186E186E02BD00000240BE
:1000D000000000180000070000035F00212200005C
:1000E000F4000018222000A00001001008ED00E03C
:1000F00000000000000000000000000074B24E7A12
:1001000000200420F7010010C3010010C5010010F9
:10011000C1010010C1010010C1010010C101001097
:10012000C1010010C1010010C1010010C701001081
:10013000C1010010C1010010C9010010CB01001065
:10014000CD010010CD010010CD010010CD01001037
:10015000CD010010CD010010CD010010CD01001027
:10016000CD010010CD010010CD010010CD01001017
:10017000CD010010CD010010CD010010CD01001007
:10018000CD010010CD010010CD010010CD010010F7
:10019000CD010010CD010010CD010010CD010010E7
:1001A000CD010010CD010010CD010010CD010010D7
:1001B000CD010010CD010010CD010010CD010010C7
:1001C00000BE00BE00BE00BE00BE00BEEFF3058054
:1001D000103800BEF2EB88711477011034770110EB
:1001E0003402001090A31AE700201F49086006C8D7
:1001F00081F3088810471D48006800282FD10DA4FE
:100200000ECC002902D000F012F8F9E71849194A7B
:10021000002000E001C19142FCD1174988471749ED
:1002200088471749884700BEFDE701C901C29A42C5
:10023000FBD3704734770110C0000020A41B0020BE
:1002400018920110000004200000042018920110F0
:10025000001004200010042000000000704709482E
:1002600004F0FAFF0047000008ED00E0000000D0B5
:10027000A81B0020E42E0020693A0010151400107D
:10028000913B00105756000006005250ABB360532C
:100290006037011006005250861C0302803701109F
:1002A000060052505422A29D88370110050052507A
:1002B000DE65F46818920110F8B5C0460448054B95
:1002C00010B5834203D0044B002B00D0984710BDDB
:1002D000A41B0020A41B00200000000006480749C2
:1002E000091A8B10C90FC91810B5491003D0044B57
:1002F000002B00D0984710BDA41B0020A41B002099
:100300000000000010B5074C2378002B09D1FFF73F
:10031000D5FF054B002B02D0044800E000BF0123AD
:10032000237010BD501E0020000000003833011063
:10033000054B10B5002B03D00449054800E000BF71
:10034000FFF7CCFF10BDC04600000000541E002087
:1003500038330110F8B50600040005000700164BFD
:100360003836036630000AF0F9FA636C643590376A
:10037000002B04D001223000216E0AF097F88C2661
:100380000E4B2800A3510AF0E9FA236F002B04D08A
:1003900001222800A1590AF089F8094B3800BB62F4
:1003A0000AF0DCFAFB68002B05D0B82301223800E4
:1003B000E1580AF07BF8F8BD3833011044330110DE
:1003C00054330110F8B503000600002205000700B1
:1003D0001933FF33F0361A70040030000AF0BEFA09
:1003E000F3689D35C937FF35FF37002B06D08C23C6
:1003F0005B0001223000E1580AF058F80F4B28004A
:10040000AB620AF0ABFAEB68002B06D0E2235B008C
:1004100001222800E1580AF049F8084B3800BB6275
:100420000AF09CFAFB68002B06D0F8235B0001223F
:100430003800E1580AF03AF8F8BDC046CDCCCC3DC2
:1004400070B503000500012206001D354533FF335A
:10045000FF351A70040028000AF080FAEB68F936BC
:10046000FF36002B06D0A2235B0001222800E158B2
:100470000AF01CF8882301229B00E3181A70300050
:100480000AF06CFAF368002B06D088239B00012247
:100490003000E1580AF00AF870BDC046892370B5F3
:1004A000050004009B00C6582A4B38350366280017
:1004B0000AF054FA636C002B04D001222800216E4C
:1004C00009F0F4FF216BB06A05F0CDFA05F048FBA6
:1004D000C317C01858404F2800DC70BD25001E4BC4
:1004E0009D35FF35AB6228000AF038FAEB68002B27
:1004F00006D0E2235B0001222800E15809F0D6FF74
:100500002500154BC935FF35AB6228000AF026FAE5
:10051000EB68002B06D0F8235B0001222800E1588D
:1005200009F0C4FF25000D4BBC35AB6228000AF072
:1005300015FAEB68002B05D0E42301222800E158CE
:1005400009F0B4FFBB23DB00E318A3610123237789
:10055000C3E7C04664330110CDCCCC3DFC43011051
:10056000F0B557464E464546DE46A423E0B55B004F
:10057000C758DC33C35889B00693BE23DB009C46C2
:1005800084446346079338239B462C339A462C3386
:10059000994606002C3305009846AF237A8D9D3688
:1005A000C9350400FF36FF358344824481448044CA
:1005B0009B009A4200D83EE1A24B3000B3620AF0A1
:1005C000CDF9F368002B06D0E2235B000122300056
:1005D000E15809F06BFF9C4B2800AB620AF0BEF9B2
:1005E000EB68002B06D0F8235B0001222800E158BD
:1005F00009F05CFF954B11211800954A039304F014
:10060000C1FDC823BA8D9B009A4200D80DE18E4BE4
:100610003000B3620AF0A2F9F368002B06D0E2239F
:100620005B0001223000E15809F040FF864B2800B2
:10063000AB620AF093F9EB68002B06D0F8235B005D
:1006400001222800E15809F031FF824A824B0492CE
:1006500003CB03C21B781370AF23FA8D9B009A4221
:1006600000D873E0784B3000B3620AF077F9F36892
:10067000002B06D0E2235B0001223000E15809F094
:1006800015FF704B2800AB620AF068F9EB68002B8D
:1006900006D0F8235B0001222800E15809F006FF8C
:1006A0006E4B6F4A18001121059304F06BFDFA237D
:1006B0003A8E9B009A4253D26A4B0293FA233A8DA8
:1006C0009B009A4200D381E0039B584623660AF0C0
:1006D00045F9636C002B04D001225846216E09F0C5
:1006E000E5FE8C25049B504663510AF037F9236FD1
:1006F000002B04D001225046615909F0D7FE4B4629
:10070000059A48469A620AF029F94B46DB68002BA5
:1007100005D0B82301224846E15809F0C7FE4346F8
:10072000029A40469A620AF019F94346DB68002BA8
:1007300005D0E42301224046E15809F0B7FE09B094
:10074000F0BCBB46B246A946A046F0BD434B1A00DA
:10075000059320231380FA233A8E9B009A42ABD351
:10076000414B3000B3620AF0F9F8F368002B06D071
:10077000E2235B0001223000E15809F097FE3B4B79
:100780002800AB620AF0EAF8EB68002B06D0F823E9
:100790005B0001222800E15809F088FE069B986A58
:1007A000079B2063A361012323772E4B029305F05F
:1007B0000BFA2F4A009001911121029804F0E2FCFB
:1007C000FA233A8D9B009A4200D27DE7274B3000F6
:1007D000B3620AF0C3F8F368002B06D0E2235B0093
:1007E00001223000E15809F061FE1F4B2800AB6286
:1007F0000AF0B4F8EB68002B06D0F8235B00012266
:100800002800E15809F052FE069B986A079B206376
:10081000A3610123237705F0D7F9164A00900191CF
:100820001121029804F0AEFC4EE70A4B1A00049323
:100830002023138010E7054B1A0003932023138015
:10084000DFE6C0469A99993DCDCCCC3D3C240020B2
:1008500078330110502400209033011064240020CC
:100860009C33011078240020CDCC4C3E9A9999BD40
:10087000B4330110BC330110C120D0B5C00008F062
:1008800021FC0221E8234942C150B033C150EC237E
:100890009B00C218C8235B00C250C2182C3BC25038
:1008A000C2220023B42452008350843AFF3A6400E9
:1008B00002518C3401517C3401518321C900441808
:1008C000B139FF39445044182C3944502031435039
:1008D0001C394250574C4031435008394450B524DC
:1008E0000431405048314350043143505249A40030
:1008F000015104340351514E10340251083C065149
:1009000002260434005148340351043403510C349A
:1009100001510434035110340651494E083C06512C
:1009200003260434005148340351043403510C3479
:1009300001510434035110340651424E083C065113
:1009400082260427043400514834035104340351EF
:100950003D4CF6000151CD34FF340419845110365A
:1009600087513A4F083E8751394E00278051394E02
:10097000835104368351384E8151BE21C900461837
:100980007939FF394650354943506D39FF3946189A
:100990007931FF31465046183149465004314250B2
:1009A0003049425430494350304942543049435011
:1009B000B82189004618A921C900465046182D497A
:1009C0004650043142502C4942542C4943502C4942
:1009D00042549E2189004618BA21C900465029492F
:1009E00043500C3146182849465004314250274A9A
:1009F0003031835402000C324250254E2549465076
:100A00000026043141180E604F60BD21C9004354D7
:100A100008314250204A2149815004328218166020
:100A20005760C022D2008354C36004614461836173
:100A30000377D0BD55030010C4330110C503001067
:100A400041040010610500100C0400009D0400101A
:100A50001C0400006404000074040000B4040000DE
:100A6000940400009C040000FC040000E404000066
:100A70003C0500001C050000240500008405000062
:100A80006C050000C4050000A4050000AC050000D2
:100A9000C8330110DC050000F4050000D03301105C
:100AA0002823426AD25C083BC2547047202370B5A9
:100AB000C35C0400002B3BD12123C35C002B1CD062
:100AC0000CF058F82000B43003001C490B435B07BE
:100AD0001CD18B1CC31A042B18D94A880B8812040A
:100AE0001A43CB888D881B042B43026043600B891B
:100AF0002838038609F032FF70BD0CF003F820009F
:100B0000B43003000E490B435B07E2D0B42320004E
:100B10000A888C30E2524A880233E2528A880233D1
:100B2000E252CA880233E2520A890233E252E1E712
:100B30000BF016FF21230122E254DDE7642D002093
:100B40004C2D00208A2070B5800008F0BBFA03000D
:100B50002C3343623433836584230065D022C05034
:100B600000239C241E498350083A8150043280504F
:100B7000483283501B49043283500C328150043276
:100B80008350283AFF3A184D64000251083C055141
:100B90000434005148340351043403510C340151DE
:100BA000C8210400490043503C314350C8340C3143
:100BB000445044182C3944500431425018394250A2
:100BC0007C3143500100882331319B00FF31C150FB
:100BD000C1182C3BC1500433C250183BC25070BDE9
:100BE000A10A0010C4330110AD0A00108823F0B52B
:100BF000076AC5583433C4583B7D466D83B0002B1B
:100C00000CD1337D002B1AD12B7D002B28D1237DD5
:100C1000002B36D10BF016FC03B0F0BD0023802270
:100C200000210020009310330BF05EFB0123002213
:100C30000021B86A0BF032F9337D002BE4D0002399
:100C4000802210210020009310330BF04DFB012374
:100C500010220021B06A0BF021F92B7D002BD6D099
:100C60000023802220210020009310330BF03CFB56
:100C7000012320220021A86A0BF010F9237D002B0C
:100C8000C8D00023802200933021002010330BF0C5
:100C90002BFB012330220021A06A0BF0FFF8B9E7FB
:100CA000084B10B51A78002A00D010BD01321A7016
:100CB0000BF07AF804480BF071F800200BF080F884
:100CC000F3E7C046D42E002024550110CA2070B589
:100CD000800008F0F7F903002833036234334365DA
:100CE00002008023C0649032C0500833C2502C33BD
:100CF000C05034320833C2502C33C050F822002385
:100D0000B02430498350083A815004328050483230
:100D100083502D49043283500C3281500432835069
:100D2000503AFF3A294D64000251083C0551043401
:100D3000005148340351043403510C340151DC2177
:100D4000040049004350F034483144500C394350BA
:100D50000C3144182C39445004314250043143546E
:100D600060314350A83C0C31445045182C39455053
:100D70000431822542500421AD0041517C3543515C
:100D80000C35445146192C3D465104354251183D0D
:100D900041517C3543510C35445146192C3D465147
:100DA00004354251183D41517C354351C8239B00C5
:100DB000C450C4182C3BC4500433C250183BC1501B
:100DC00070BDC046A10C0010C4330110ED0B001023
:100DD000036A70B59C6A0021201C04F08DFEFE2180
:100DE000431E98416400640805008905201C04F036
:100DF0008BFE002805D00748290001220BF0B4FF24
:100E000070BD0549201C04F048FE04F0D7FE80B2F6
:100E1000F2E7C046FF0F000000F07F45436D70B55C
:100E20009C6A0021201C04F067FEFE21431E9841AD
:100E30006400640805008905201C04F065FE002894
:100E400005D00748290000220BF08EFF70BD054930
:100E5000201C04F022FE04F0B1FE80B2F2E7C0468E
:100E6000FF0F000000F07F4510B501200BF04EFF92
:100E700010BDC046A62070B5800008F023F903001D
:100E800028330362343343658023C0649022C0500A
:100E90000023F8242D498350083A815004328050B1
:100EA000483283502A49043283500C328150043234
:100EB0008350284DE73A0251083C0551022504347D
:100EC000005148340351043403510C3401510434AB
:100ED000035110340551204D083C05510434005194
:100EE00048340351043403510C340151DC21040013
:100EF000490043508834483144500C3943500C3138
:100F000044182C3944500431425004314354113CAC
:100F100060314350FF3C0C31445044182C3944504C
:100F20000431822442500421A40001517C34035135
:100F30000400A42359349B00FF34C450C4182C3B34
:100F4000C4500433C250183BC15070BD690E00102C
:100F5000C4330110D10D00101D0E0010942010B5E7
:100F6000400008F0AFF80300283303628E2300220C
:100F70005B00C064C250343B0132C25010BDC04659
:100F8000F0B5070004000600050087B003A9194862
:100F90000BF04EFB039B5437E367380009F0DEFC8F
:100FA000236E8436B435002B04D001223800E16F63
:100FB00009F07CFA049B3000B362019309F0CEFC87
:100FC000F368002B05D0AC2301223000E15809F072
:100FD0006DFA059B2800AB6209F0C0FCEB68002BA2
:100FE00005D0DC2301222800E15809F05FFA07B0A0
:100FF000F0BDC046402D0020054B10B51A78002AE0
:1010000000D010BD013203481A700BF0C7FAF8E7A0
:10101000D52E0020402D0020922070B5800008F0D1
:1010200051F8030028330362F0220023AC24204946
:10103000C0648350083A8150043280504832835053
:101040001C49043283500C32815004328350483A98
:10105000FF3A194D64000251083C05510434005117
:1010600048340351043403510C340151D821040095
:1010700049004350E834483144500C39113443504E
:10108000FF3420394450043142500431435460311C
:1010900043500100902351319B00FF31C150C118D2
:1010A0002C3BC1500433C250183BC25070BDC046E7
:1010B000F90F0010C4330110810F0010036BF0B55D
:1010C0004F4699466423D6469A4680B5050083B0BC
:1010D0008244806807F024FEAB6AEC6A06000F00C9
:1010E00000930194002C36DD4B46696A986A04F03F
:1010F000BDFC009A019B041C39003000801A994104
:1011000004F01CFC174A184B04F05FFB04F01EFCB3
:10111000011C201C04F0C1FCFC21890504F0BDFC6D
:10112000296A04F0A3FC28628C242851504609F057
:1011300015FC2B6F002B04D001225046295909F0D1
:10114000B5F94B469B6AAE62EF626B6203B0C0BCFE
:10115000BA46B146F0BD002C01D1002BC4D1286A9B
:10116000E2E7C04695D626E80B2E113EA42010B526
:10117000400007F0A7FF030038330363A0220023D9
:101180001049C0658350083A81500432805048327B
:1011900083500D49043283500C3281500432835005
:1011A0003C32835002004133FF339832C250C218A0
:1011B0002C3BC25001220433C250183B0332C250B0
:1011C00010BDC046BD100010C4330110F0B5C646B6
:1011D0000500060080211F4A040000B5D068843550
:1011E0000006000F54360130490053680B42FCD111
:1011F0000138176A0028F8D18021D068154A000408
:10120000000F7F420130890053680B42FCD1013846
:10121000536A0028F8D15B423000E767984609F02E
:101220009DFB236E002B04D001223000E16F09F0FA
:101230003DF943462800AB6209F090FBEB68002BB8
:1012400005D0AC2301222800E15809F02FF980BC19
:10125000B846F0BD00002050F0B5D6464F46464691
:101260000025C0B53D4C8AB020003D4907F0B0F9DB
:101270000223200008220021009507F0B1FA002285
:101280000121082000F024FF00220121092000F0A4
:101290001FFF8026F827C02376021B037F0202A9C6
:1012A000102206A89A46049302960397059504F027
:1012B00041FD2C4B06A9102202A89946079304F081
:1012C00039FD8023DB020593274B20000393802305
:1012D0001B0398460493002202AB002107F0D8FAC2
:1012E000012223682000134323600121022300957B
:1012F0000B3207F075FA002201210C2000F0E8FE05
:10130000002201210D2000F0E3FE534602A9102225
:1013100006A8049302960397059504F00BFD4B462F
:1013200006A9102202A8079304F004FDC023DB02E3
:1013300005930E4B002203934346012104932000A2
:1013400002AB07F0A5FA02222368134323600AB018
:10135000E0BCBA46B146A846F0BDC04600002050E9
:10136000DC33011080770100807701088077010C61
:10137000862070B5800007F0A5FE030028330362C5
:10138000C022002394242049C0648350083A81502D
:1013900004328050483283501C49043283500C324E
:1013A000815004328350183AFF3A194D64000251BB
:1013B000083C0551043400514834035104340351AE
:1013C0000C340151C021040049004350B834483165
:1013D00044500C3911344350FF3420394450043107
:1013E0004250043143546031435001008423213181
:1013F0009B00FF31C150C1182C3BC1500433C25077
:10140000183BC25070BDC04659120010C4330110C1
:10141000CD11001010B50021002009F0D9FB10BD3E
:101420007047C0460A4B01211A68002300B589B0F5
:1014300006930593049102930193113105330391AF
:1014400000930021013B034809F096F909B000BD63
:1014500098210020C01C0020014B03600120704730
:10146000C01C0020F0B5DE4657464E464546E0B566
:101470009FB0FFF701FAFE4BFE4A836099460223B4
:10148000026243624B465D6E9E2304009B00E61899
:1014900000210023F8489B46A062E1622E6023638E
:1014A00063639423DB00E61800220023326073603C
:1014B0009523DB00E6184B4630607160DE6D9023AB
:1014C000DB00E11800233160EC49002263509D23CA
:1014D000DB00E11800230A604B609E230021E848EE
:1014E000DB00E718283B38607960E1180023716061
:1014F000E449E04A6350A523DB00E11802230A60B7
:101500004B60A62300210022DB00E31819605A601B
:10151000A1230022DB00E318B360DB4B0021E25083
:1015200000222C33E31819605A60AF23DB00E11866
:101530000023D64A80270A604B60AA230022DB00E2
:10154000E318F360D24B0026E250AE239B003F0627
:10155000E3181E605F60C8239B00E3181E605F6095
:10156000E2239B00E3181E605F60FC239B00E318EE
:101570001E605F608B23DB00E3181E605F604B46DC
:101580002200DB6F0C325B6801251A60FFF7DAFA84
:101590004A46030082600222C02109335242FF33CF
:1015A00042508262C26505841E605F609E66DF668F
:1015B0000290FFF78BFB022201008C234846524227
:1015C0004A628A658860CA503433CA500A00436E42
:1015D000F0325A600B003133FF331E605F609E664D
:1015E000DF660391FFF746FC494602008160022056
:1015F0004B6E110040425062906588329A600B0039
:10160000C8339E66DF661E605F6068339E66DF6675
:101610000491FFF7A3FC494602008160022080216B
:10162000B023404250506031D050505050620D9223
:10163000FFF7F2FC804602004846906002208021BD
:10164000B023404250506031D050505050624A4612
:10165000536E4246E832DA60403216605760966652
:10166000D7666832FFF782FD49460200816002209A
:101670009021404250505063584611001062506211
:10168000002300228A62CB620B00D8331E605F60A9
:101690000591FFF76BFD010048468860022090220B
:1016A00040428850002300228A62CB620B004863CC
:1016B0005846D833086248621E605F600191FFF7A8
:1016C00055FD4B4682468360010002209022404235
:1016D0008850486352465946002311625162514670
:1016E00000228A62CB625246D83216605760FFF7FA
:1016F0003FFE494683468160020002208021B023DC
:1017000040425050D05050624A46536E5A46B8320A
:101710001A61A8234032166057609B009666D76610
:101720000336E65068327C392200AB26053007F0DC
:10173000ABFCB600A051220004210320AA2707F029
:10174000A3FC4C26BF00E05122000421032007F037
:101750009BFCB4467827A4446646BC46A923A4440F
:1017600067469B00E05009974760A427BC46A44405
:10177000674687600A970327643306602200E750B4
:1017800004210320C527069607F07EFCBF00E05128
:1017900022000421032007F077FCD826043FE05103
:1017A000220004217600032007F06EFCB4462C369C
:1017B000A4446746B446C323A4446646621DFF3270
:1017C0009B00E05002604760866002206433E05076
:1017D0000E92042122000797089607F055FCDF229D
:1017E0009200A05004212200022007F04DFCDE23CD
:1017F00098269B00E05022000421022007F044FCC0
:10180000DD237600B4469B00E050693BA444FF3BD7
:1018100066469C46A444634643601093F623062222
:101820009B0006600421E25006202200F9270F9653
:1018300007F02AFCBF00E05122000421062007F037
:1018400023FCF8239B00E05022000421062007F02F
:101850001BFCF723099E9B00E050C6600A9E079A76
:101860000661D026B4460260089AA44412E0C0463D
:10187000C01C002000E40B5400E1F505BC0400008E
:1018800000CA9A3B04050000440500000065CD1D18
:101890008C0500004260069A66468260042264332A
:1018A00046610421E2500420220007F0EDFBFE4ACD
:1018B0000421A0502200042007F0E6FB8921C90082
:1018C000605022000421042007F0DEFBF74B0021CA
:1018D000E050079BC6600360089B069A4360F023B4
:1018E0001196029E8260F1506833F5503200043147
:1018F000012007F0C9FBB2235B00F0503200042145
:10190000012007F0C1FBB0235B00F050320004213E
:10191000012007F0B9FBAE235B00F0503300A03389
:1019200003601293C0228C23002003995B005200B5
:10193000C8508850B02102961600049A5050414673
:10194000D05033009051703E88510E3E083BFF3E10
:10195000CE5042460421033007F096FBC221464692
:101960004900705081394246FF39032007F08CFB53
:10197000C0235B00F05042460421032007F084FBA3
:10198000BE235B00F05068264644066013969826F6
:10199000B43B434483601593C02346444660149689
:1019A000059E0421F5503200012007F06DFBCC2389
:1019B0003200F0500421012007F066FBC8233200FA
:1019C000F0500421012007F05FFB3300C426C02142
:1019D000985105937833036001981693455002009F
:1019E000BC39012007F050FBCC23019A0421D050D0
:1019F000012007F049FBC823019A0421D05001209F
:101A000007F042FB01990A00783288510260514682
:101A1000C02017920D5052460421BF3807F034FB06
:101A20005146CC235246C8500421012007F02CFB1C
:101A30005146C8235246C8500421012007F024FB18
:101A4000534698514C3E56440660E02318960020B9
:101A50005E46F050A4265946760002305A46885118
:101A6000042107F011FBAA235E465B00F0505A46A2
:101A70000421022007F008FBA8235B00F0505A461F
:101A80000421022007F000FBA6235B00F0509826FB
:101A9000E43B5E445B440660436084201A93B423B5
:101AA000A565E46525500430245028302550E450C5
:101AB000603060332550E450A833E5500433E450DF
:101AC0002833E5500433E450B03BE5500433E45090
:101AD000D833E5500433E450413BFF3B3038E55008
:101AE0002450C930FF30235822001D6004210120FA
:101AF000199607F0C9FAAB21890063580E001860E7
:101B0000AA208000235822005D600421012007F0F4
:101B1000BBFAA35922005860AA2080002358042150
:101B20009D60012007F0B0FA0399A3598C461A680A
:101B3000A43E664498600B96166094265B68B600D7
:101B400066441E601B96A626B60066440660C42046
:101B50008000235822001D60042101201C9607F0FC
:101B600093FAC521890063580E001860C4208000D4
:101B7000235822005D600421012007F085FAA35953
:101B800022005860C4208000235804219D60012059
:101B900007F07AFAA35902991A689931FF319860CF
:101BA0001160049A942194460D3E5B68FF3E8900C3
:101BB000664461441E600160DE20800023582200DC
:101BC0000C911D600421012007F05EFADF218900DD
:101BD000635822001860DE208000235804215D60D5
:101BE000012007F051FADF218900635802995860FB
:101BF000E1311B68FF311960F82380229B00E35814
:101C0000920042440260042122001D60012007F07E
:101C10003BFAE35922001860F8239B00E3580421A3
:101C20005D60012007F030FAE35922005860F82384
:101C30009B00E35804219D60012007F025FAE35939
:101C400022009860F8239B00E3580421DD60012006
:101C500007F01AFAE3592200D860F8239B00E358F2
:101C600004211D61012007F00FFAE35922001861D9
:101C7000F8239B00E35804215D61012007F004FA7A
:101C8000E3590C9F1A68586116605A681D961760D0
:101C90009A680B9F04211760DA681B9F1B69176005
:101CA0001C9FB8221F6003E04C04000044040000A5
:101CB000039F9200BC46624402608920C000235802
:101CC00016001D602200012007F0DEF9E94A042118
:101CD000A358220018608920C000235801205D60AD
:101CE00007F0D2F9E34A0421A35822005860892062
:101CF000C000235801209D6007F0C6F9DD4A042189
:101D0000A358220098608920C00023580120DD607C
:101D100007F0BAF9D74A1D99A3581A68D86011601C
:101D20005A680C999B6811600B9919600660B02085
:101D3000AC23B02602994000CD500B586038895131
:101D40000A000E001D600421FF3807F09DF9B22241
:101D500021005200B35802961860A826D8235131AA
:101D6000FF3101600D98903A8067A4218051855021
:101D7000C050404645678067455080518550C050EF
:101D8000C02042464000135880381D60A039FF38FB
:101D900007F07AF9C2214246490053588139186048
:101DA000C0204000135880385D60FF39FF3807F0CD
:101DB0006BF9C22142464900535881395860C0200E
:101DC0004000135880389D60FF39FF3807F05CF9F8
:101DD000C22142464900535805991A680131FF3122
:101DE0009860116001995B680A000132FF321A6045
:101DF0005246531CFF33036088230598C05084204B
:101E0000C950155018004030D250135804211D609D
:101E1000C73807F039F95146CB354B595D35FF3599
:101E2000186063190360584602998067805120004A
:101E30000B00F03048628C332C30E03D88656351F4
:101E40002500BC2338353D622C357D65203E2C3580
:101E5000BD51049A0D356038FF35F85015622C35A8
:101E60005565404630352B004546B4302B620300A3
:101E70005046059E54353563019E30353563036306
:101E8000892364309B00E05048461399436B169DAC
:101E90001960149903975960159901279960DD60BD
:101EA000179A18991A61069A59619A61099E0E99B2
:101EB000079ADE6159629A620A9E089A0F99129DEA
:101EC0001E62DA621963DD631099119E1A9A199DD8
:101ED00059639E631A645D64A423A2259B000122BA
:101EE000E11800230126AD000A604B606119624DC4
:101EF00076420D604E60BE21890061180A604B6019
:101F0000BC2101265D4D8900611876420D604E604E
:101F1000D821890061180A604B60D621584E89008B
:101F200061187F420E604F60F221890061180A60DB
:101F30004B60F02189006518012152484942286010
:101F400069608621C90061180A604B608521C9005B
:101F50008C4601214C486444494220606160029CE7
:101F6000012521004134FF342000E031474C0A6054
:101F70004B606D4208390E604F600A674B67046022
:101F800045600398012701000931FF310A604B6069
:101F9000394E411CFF317F4269300E604F600A6745
:101FA0004B67FF300121340006003D003848049F94
:101FB0004942306071603E00A03632607360083E76
:101FC00034607560326773677E1CFF363060716005
:101FD00039007131FF310A604B6001212D486937AA
:101FE000FF37494238607960414626002F000125BD
:101FF0000131FF310A604B6005980839234C0E60AF
:102000004F600A674B676D428C66CD666831010090
:10201000B0310A604B60A83001210400019D1E48C8
:102020004942206061602C00B03422606360083C4B
:10203000206061605446B03422606360083C2060D8
:1020400061605946D0310A604B60584608390E60CD
:102050004F600126094D3130FF3076420A674B67E9
:10206000056046601FB0F0BCBB46B246A946A0461C
:10207000F0BDC0464C0400000000FFFF0100FFFF60
:102080000200FFFF0500FFFF0600FFFF0300FFFF48
:102090000700FFFF0800FFFF0400FFFF7047C04676
:1020A000094A830094464022634410B51C68C0006E
:1020B0006240C02414408022520113431C60034B31
:1020C0009C466044416010BD04C001400040014096
:1020D0000A4B80009C4604236044002901D00C2355
:1020E0000821002A00D10B00026853400C221A403C
:1020F00080235B01184302607047C04604C0014062
:102100000123D0228340120693629361094A83001F
:102110009446402263441968C0004A40C0211140DF
:102120008022520113431960034B9C4605236044EF
:102130004360704704C0014000400140024B1868F2
:102140008007C00F7047C04600C00640EFF3108004
:1021500072B6034A1368002BFCD0BFF35F8F704741
:102160002C0100D0BFF35F8F0022024B1A6080F376
:10217000108870472C0100D070B5EFF3108C72B648
:102180000D4D2B68002BFCD0BFF35F8F0724CB08CD
:10219000C618C05C01230C40A3401C00044003424D
:1021A00007D103433370BFF35F8F2C608CF310882B
:1021B00070BD100001F00AFD2C0100D0F8B54746B3
:1021C000CE46884680B5EFF3108C72B6214D2C6850
:1021D000002CFCD0BFF35F8F9A422CD8D40807277D
:1021E000055D061901241740BC402C421FD0072171
:1021F0000127894609E0D408055D06194C463900D7
:102200001440A1400C00294211D001329342F2D275
:1022100001204042BFF35F8F00220E4B1A608CF307
:10222000108800280FDBC0BCB946B046F8BD2C436F
:1022300010003470EEE7BFF35F8F00232B608CF348
:102240001088012040424346002BECD0089801F052
:10225000BDFCC0462C0100D00021044B044ABFF352
:102260005F8F02C39342FAD17047C046000100D08D
:10227000800100D0044A1078431CDBB2172B00D930
:10228000102313707047C0467010002000B5054B36
:1022900083B00100009318221F230348FFF78EFF2D
:1022A00003B000BD143401109424002001238340A6
:1022B000002904D0034A1360034A13607047034A9D
:1022C0001360FBE780E200E000E100E080E100E075
:1022D00001238340014A13607047C04600E200E0DA
:1022E000084B10309B688000C358002B07D0064A6B
:1022F00000209B1A2F229A424041C0B27047002012
:10230000FCE7C04600ED00E074100020024B1030E6
:102310009B688000C058704700ED00E070B50D006C
:10232000EFF3108672B60F4A1368002BFCD0BFF390
:102330005F8F0D4B10309B6884001B590B4A9342F2
:1023400003D09D4201D001F059FC074B9B681D5101
:10235000BFF35F8FBFF35F8F0022024B1A6086F3DB
:10236000108870BD240100D000ED00E0CD01001008
:10237000F0B557464E46DE464546E0B585B0060008
:1023800002911700EFF3108B72B6674A1368002BA7
:10239000FCD0BFF35F8F0025644B5D579A46002D3C
:1023A00000DAA4E06B00624C03935B199B00984633
:1023B000A146C1444B4652469B79103613705D4B83
:1023C000B2009B68019299580B1B2F2B34D95A4BA2
:1023D000994200D0A4E0039B584A9C46584B654460
:1023E000AD006353434602336519E418554B012190
:1023F000043B1B1B1B055B0D13436B80524BEF71A2
:10240000AB80FF23AB71029BAB604B460B431900C3
:10241000484B019A9B689950BFF35F8FBFF35F8F62
:102420000022414B1A608BF3108805B0F0BCBB460C
:10243000B246A946A046F0BD01200A008243D379E6
:10244000BB422FD845464E46130040491B1B5B41FB
:102450005943090D3A4B63533A4B02356519043B16
:102460005B1B1B05354D5B0D2B4373800426B44667
:10247000E0444444131F1B1B4C46A17102991B05E9
:10248000A16049465B0D2B43A380314BE7710143AB
:102490001360BDE75800C01880002018C679BE42FE
:1024A0002BD902000623D356002BF3DA101D8246E7
:1024B0002848804604267642B446E14450464E46BB
:1024C000361A3005400D824656461C489571064323
:1024D0009680039A944665441D4AAD0064192260B3
:1024E0004246A371029BA280E771A36090E701F0CE
:1024F00085FB002553465D5754E7101D82469088A2
:102500004005001584464046D444664604302018F1
:10251000301AE0260005400D360230438046C9E7F8
:1025200001F06CFB57E7C046240100D0DC2E0020F0
:102530007410002000ED00E0CD01001000E0FFFF6E
:1025400000A1FFFFA410002001BDFFFFAAAA000008
:102550000148804701BD0000F0B5DE4657464E46B3
:102560004546E0B50C0083B0EFF3108972B6584AC7
:102570001368002BFCD0BFF35F8F564B9A680300A3
:1025800010339F00D559544A9046954232D0A54207
:1025900043D0524EAA1B2F2A2CD8012282409246A9
:1025A00051464F4A12681140019151464D4A1160FF
:1025B000BFF35F8FEFF305829346002A33D10123E7
:1025C0002A009A4393689C4208D177E04B005B183D
:1025D0009B00F3189968A1422AD01A00062151568F
:1025E0000029F3DA019B002B19D052463E4B1A60AA
:1025F0003B4B1A60374B9B68DD51BFF35F8FBFF3D6
:102600005F8F0022324B1A6089F3108803B0F0BC50
:10261000BB46B246A946A046F0BD1500EAE75246C1
:10262000304B1A60E6E79342C9D001F0E7FAC6E7FB
:1026300006215956002921DB4A0050188000341821
:102640008046A0689860E079D8710620205698717D
:10265000002824DBA488F01A6405241544440019DA
:10266000E0240005400D24022043988052181F4B9F
:102670009200B6181A781970B271B3E7594600295A
:102680000FD1FF3191711A49918018490A789A71D6
:10269000184A9B1B5B415A43120D0A70A2E7164869
:1026A000E3E7164A1649D21A083A5002400D014390
:1026B0009980144952080A43DA8093E7062151565B
:1026C00013000029B8DA5A46002AEAD14546DCE769
:1026D000240100D000ED00E0CD01001074100020B6
:1026E00000E100E080E100E080E200E0DC2E00207C
:1026F00001BDFFFFAAAA000001BD0000AE1000202E
:1027000000F0FFFF00F8FFFF70B5EFF30581012433
:102710000443EFF3108C72B6214A1368002BFCD0EF
:10272000BFF35F8F1F4B05001F4AED1A6D416A43CF
:10273000120D1E4D8900AE6852B27658A6421CD0CA
:102740000621595691421CD012215956914222D04D
:102750001E215956914220D02A21595603249142D4
:1027600010D0134B19781A708171BFF35F8F00225C
:102770000B4B1A608CF3108870BDAB680D4C5C502D
:10278000EFE700246100091989005B18FF219971A6
:1027900009499980E5E70124F4E70224F2E7C046FD
:1027A000240100D074100020AAAA000000ED00E06F
:1027B000DC2E0020CD01001001BDFFFF054B064AB5
:1027C0001360064A136053609360D36013615361D2
:1027D000936170478080808000E400E004E400E0C2
:1027E00000B5074B83B00100009300220523054884
:1027F000FFF7E4FC002801DB1F23181A03B000BD1B
:1028000030340110E32E002070B504000E001500D6
:10281000FFF730FD0100200000F006F8A680E580FB
:10282000BFF35F8F70BDC046024B9C466144890078
:10283000016070474000003410B50400FFF71AFD36
:1028400001002000FFF7F0FFFF232371BFF35F8F2C
:1028500010BDC04610B50400FFF70CFD01002000BC
:10286000FFF7E2FFFF23A380BFF35F8F10BDC046D9
:1028700010B504000120FFF709FD044B9C4660449D
:1028800080002060BFF35F8F10BDC0464000003461
:10289000034B9C46614489000160BFF35F8F704722
:1028A0004000003483680B4810B58446614462449C
:1028B000090112019A18591854684B6801209C426A
:1028C00001D802D00020C0B210BD12680B689A4235
:1028D000F9D8F7E7FFFFFF0F0A4B1968EFF31080F5
:1028E00072B60A68002AFCD0BFF35F8F1B68BFF383
:1028F0005F8F00221A6080F3108840BF0020002103
:102900007047C046A02E0020F8B557464E464546B3
:10291000DE46E0B599460CAB1C780DAB1B78060083
:1029200090469A460768002C11D1BC7B002C42D0FF
:1029300065003B682D19033D59194B78BB73002B7B
:1029400000D1FB7300238B704B700B7004E06500AB
:102950003B682D19033D5919B2682A4B94464246EB
:10296000E3181B0163441A604A465A600A9A9A6047
:102970000B9ADA6000238B704B700B707B7B9B464D
:10298000002B2BD022005946B8687B6898473A68DC
:10299000002816D05B4658465B005B445519033B44
:1029A000A870D118D35C002B00D06B705B460C7004
:1029B0007B73A34513D0F0BCBB46B246A946A046E4
:1029C000F8BD5B465B005B44033BD3189C70511918
:1029D000525D002A00D05A705B460B707C734246F1
:1029E0004B46307D00F0B8FB051E06D05346002B49
:1029F00003D12100306800F0D3FD0E9B002BDAD00C
:102A00001D70D8E7FFFFFF0FF0B5DE4657464E4674
:102A100045460023E0B58BB00893674B8200D4583D
:102A200000239B46099000F00DFB626806000F0032
:102A3000EFF3108572B61368002BFCD0BFF35F8FE5
:102A400023689C465B7B9946002B00D169E0A26815
:102A50005A4B90464B441B01984443461A685B68A6
:102A600010001900801BB941002900DC63E00998BF
:102A700000F072FB00230022984600230692079381
:102A800000239A466368BFF35F8F5A461A6085F346
:102A900010885346002B08D10028C4D10BB0F0BCDD
:102AA000BB46B246A946A046F0BD089B4146180267
:102AB0004B461843D047626806000F00EFF31085BD
:102AC00072B61368002BFCD0BFF35F8F002F50DB72
:102AD00033003B4302D02369002B61D12368D97BAB
:102AE000002907D04A00521819688C4649466244AA
:102AF000033A51709A7B002A01D14A469A734A469A
:102B0000DA734B46E168013BCA5C0132CA545B464A
:102B100023616368BFF35F8F5A461A6085F310889C
:102B200081E70023002298460023069207930023A2
:102B300000209A46A6E7002902D1002800D096E797
:102B40000021604600F0AAFC43461A685B680692C2
:102B5000079343469B689A464346DB689846E3687A
:102B60004B44013B1B7808931B0203432361002065
:102B700088E72369002BB1D0069A079B921BBB41C3
:102B8000002B15DB5946049101210391494602911E
:102B900041460191514620000091FFF7B5FEB6E78E
:102BA00000F050FA32003B0012184B41002BE9DADA
:102BB0000122034B5242E5E7802D0020FFFFFF0F6B
:102BC000FFFFFF7F10B5144C6368002B04D00A216F
:102BD0001248FFF729FE10BD2300114A102120687A
:102BE00000F076FB032000F021FA032000F01EFB2A
:102BF00003200C4900F06AFAFFF73CFB0A4B9C46A5
:102C000003232375D0231B061B6860446375074BA1
:102C100080006060DC60DAE7BC100020A02E00209D
:102C2000A5280010092A001040000034802D002043
:102C300000487047BC100020F0B54E464546DE46C1
:102C40005746E0B585B0019310AB1B78060003939F
:102C500000239946984600927268EFF3108B72B683
:102C60001368002BFCD0BFF35F8F3568AC7B002C62
:102C70003DD067002B683F19033FDB195A78AA73D0
:102C8000002A00D1EA73B168474A8C46009801993E
:102C9000A21812016244106051600E9991600F9960
:102CA000D16042469A705A701A706B7B9A46002B1C
:102CB00067D022001900A8686B6898472A68002826
:102CC00052D0534650465B005344D719033BB8706B
:102CD000D118D35C002B00D07B7053460C706B7303
:102CE00054454FD0F3681B19013B187800E00020D1
:102CF0007368BFF35F8F42461A608BF31088002C15
:102D00004FD04B46002B08D10002204305B0F0BC49
:102D1000BB46B246A946A046F0BD039B002B3ED061
:102D20000E9B00200F999847030004000D000B43F1
:102D300035D000290ADA009A019B121BAB410092A0
:102D40000193002B0ADB039B994685E700F07AF993
:102D500024184D4100940195002DF4DA0123134C01
:102D60005B4200930194EEE753465B005344033B00
:102D7000D3189C70D119D25D002A00D05A705346E6
:102D80000B706C73307D009A019B00F0E5F9814671
:102D90000028A7D02100306800F002FCA2E7002044
:102DA000B4E701204042B1E7FFFFFF0FFFFFFF7FC5
:102DB000407D7047F0B504000D0006267642F717F7
:102DC000C64636196F4100B584B08F4214D811D071
:102DD00000F038F932003B00121A8B41002B15DC51
:102DE000002B3ED02000290000F060F904B080BC28
:102DF000B846F0BD8642EBD90026002700F022F944
:102E000032003B00121A8B41002BE9DD00230293B4
:102E10000193154B3200009314483B00FFF70CFF61
:102E20000028DFDB00239846BC46114A114F7B6A1D
:102E30009C4504D8B96A8E42D4D99C45D2D1116838
:102E4000EFF3108072B60B68002BFCD0BFF35F8FDE
:102E50001368BFF35F8F4146196080F3108820BF6D
:102E6000E5E7002ABED0D1E7D9280010BC10002029
:102E7000A02E00200040054070B504000D0000F0B9
:102E8000E1F800196941002902DBFFF793FF70BDEB
:102E9000012001494042F8E7FFFFFF7FF0B5EFF363
:102EA0000583CE46474680B505000C0085B0002B53
:102EB00012D02C4A0020536A9C4203D8926A0130F7
:102EC000AA4204D305B0C0BCB946B046F0BDE01A72
:102ED000421E9041C0B2F5E7234E02930193234B6B
:102EE0000200009330000B00FFF7A6FE031EE0DD9A
:102EF00020BF7168EFF3108772B60A68002AFCD011
:102F0000BFF35F8FDAB294463068427B62451DD0D2
:102F1000FF221A405100894601689144884649467B
:102F2000414403398978002913D0F1681B0A884687
:102F30004244013A1278DBB29A420FD07368BFF371
:102F40005F8F00221A6087F31088B2E7FF221A40D1
:102F5000EBE732699342F1D13161EFE7614600F06E
:102F60001FFBEBE700400540BC100020D9280010F3
:102F7000F0B5EFF30582D6464F4646461000C0B581
:102F80001038EFF3108872B6214C2368002BFCD068
:102F9000BFF35F8F0123190081401E4D1F0069633D
:102FA000AA461D4D29601D4D2E78AC463500C54002
:102FB0002F402B4209D1BFF35F8F276088F3108821
:102FC000E0BCBA46B146A846F0BD5346144D5F6A10
:102FD00083005D59AF420ED3124A8E439B5862461E
:102FE0001670BFF35F8F0022226088F31088002BD9
:102FF000E6D09847E4E70C4B92009C466244136885
:103000001360BFF35F8F0023236088F31088D7E736
:10301000280100D0004005403C700540E22E002011
:10302000AC2E00202C230020D03F054010B501001D
:10303000024A0348FFF7A0F810BDC04658340110FB
:10304000D82E0020034B596A0A00986A596A8A42AE
:10305000FAD170470040054070B504000D00124AD7
:10306000536A1900966A536A8B42FAD130001900EC
:1030700024184D41AB4211D80ED02B000A494A6AA0
:103080009A42FCD307D1084A02E0516A994202D120
:10309000916AA142F9D370BDA642EED90123012461
:1030A0006442E5175B42E9E700400540064A536A7F
:1030B0009942FCD807D1044B02E05A6A914202D1EE
:1030C0009A6A8242F9D370470040054070B5040007
:1030D0000D00EFF3108672B61A4A1368002BFCD06D
:1030E000BFF35F8F002D1BD02000FFF70FF91649AB
:1030F00081420AD02000FFF711F901212000FFF7DB
:10310000D5F80123A340114A1360114BA400E550E8
:10311000BFF35F8F00220B4B1A6086F3108870BDDF
:103120000B4BA200D5500122A2400A4920000B7887
:1031300093430B700449FFF70FFA00212000FFF7BB
:10314000B5F8E5E7280100D0712F00103860054080
:103150002C230020E22E0020F0B54F46D6464646EE
:10316000C0B507002C4C616A0D00A66A616AA942CD
:10317000FAD18B4208D805D00120E0BCBA46B1464E
:10318000A846F0BDB242F7D9EFF3108A72B62348D1
:1031900001680029FCD0BFF35F8F0125BD402049A5
:1031A0001D4C8846097889462943C9B28C46414658
:1031B00060460870391D1B48890065630A51B900D3
:1031C0000B50216A0020294219D0616A0800A66AC2
:1031D000616A8142FAD18B4219D801D1B24216D824
:1031E000CC4516D00C4B1F201D625D6301230740A8
:1031F000BB400D4A1E38136043464A461A70BFF35F
:103200005F8F0022054B1A608AF31088B5E7002013
:10321000F5E70120F3E7C04600400540280100D053
:10322000E22E0020AC2E002080E200E0EFF3108CB4
:1032300072B60A490B68002BFCD0BFF35F8F0123E5
:103240008340074A0748136202789A430270BFF32B
:103250005F8F00230B608CF310887047280100D02B
:1032600000400540E22E002070B505001400160055
:10327000002915D00C00002A12D080686B6898478E
:10328000296800280ED073009B196200033B1219B5
:10329000CB18033A9C7088188A5C002A15D10670F6
:1032A000200070BD63001B197200033B9219CB18FC
:1032B000033A9E7088188A5C002A02D10470340098
:1032C000EEE75A7004703400EAE75A700670E7E7D8
:1032D00030B583600023CCB2437301330473426082
:1032E0008373C4730D000068012C06D9421C01339E
:1032F000DBB2137003329C42F9D1FF2129404B000D
:103300005918002340180338437030BDF8B5CE4635
:10331000474606000C0080B5002907D04D00036821
:103320006D18033D5A195778002F04D12000C0BCF6
:10333000B946B046F8BD7900C919033988464344F7
:103340005978894600215970517073683A002100FC
:10335000806898473368002814D042469A189470C1
:1033600059195B5D002B00D053700F702700494640
:103370003000FFF7CBFF390002003000FFF774FF89
:103380000400D3E7424641465D19AF709A185B5C72
:10339000002B00D06B701470E9E7C046F0B55746BB
:1033A0004546DE464E46E0B50D006B0001685B19F0
:1033B000DF1E0400C85D83B00192CA19002850D0F6
:1033C00043001B18033BCB185E78B446002E1AD17D
:1033D000019E002E42D0E67B002E04D073009B1984
:1033E000CB18033B5D70A37B002B00D1A573E57365
:1033F00000282FD10023537003B0F0BCBB46B24667
:10340000A946A046F0BD72006244033A89184A7882
:10341000904600224A7091465A7001003200200006
:10342000FFF722FF43468246002B07D05B0021684E
:103430004344033BCB185A78002A16D142465146E2
:103440002000FFF711FF2168019BCA19002BC2D190
:103450000028CFD043001B18033BCB1800219970E4
:10346000C8E7019B002BB6D1C4E750008018033891
:1034700009184878834648464870587041462000ED
:10348000FFF7F2FE594680462000FFF73FFF414616
:1034900002002000FFF7E8FE8046CFE7F0B5574670
:1034A0004546DE464E46E0B583B00191457B0400BB
:1034B0006B0000685B19DF1EC15DC219002952D084
:1034C0004B005B18033BC3185E78B446002E1CD13A
:1034D000019E002E44D0E67B002E04D073009B1981
:1034E000C318033B5D70A37B002B00D1A573E5736C
:1034F000002931D1002328005370617303B0F0BC60
:10350000BB46B246A946A046F0BD72006244033AEB
:103510008018427890460022427091465A702000EE
:103520003200FFF7A1FE43468246002B07D05B0026
:1035300021684344033BCB185A78002A17D14246EE
:1035400051462000FFF790FE019B01002068C21940
:10355000002BC0D10029CDD04B005B18033BC31812
:1035600000209870C6E7019B002BB4D1C2E7500041
:1035700080180338091848788346484648705870C0
:1035800041462000FFF770FE594680462000FFF7B5
:10359000BDFE414602002000FFF766FE8046CEE7F2
:1035A00070B5040000292CD0437B8B422ED00568D7
:1035B00048004018033828188278002A21D0530088
:1035C0009B18033BEA5CEE188A4202D11BE0002AFA
:1035D00008D053009B18033BEB185A788A42F6D167
:1035E00042785A7000230122837043702000FFF755
:1035F000D5FE617B02002000FFF736FE60730120DC
:1036000000E0002070BD43783370EBE70122190021
:10361000FFF7C4FE60730120F4E7C04630B50C200C
:1036200083B000F0B9F9FEF789FD00280ED0994B60
:10363000994A1A605A609A60DA601A615A619A610E
:10364000DA611A62954A5A6203B030BD944CA067A1
:1036500000F0F6F90122934B1A60636C012BFCD148
:103660000322914B1A608E4A936B012BFCD10133DC
:1036700001218E4A8E480093043300F03DF9052362
:103680008C4A009301218C4800F036F98B4B5A6824
:10369000FF2A02D8802252005A6080227D4C824B41
:1036A00021691201854D1A60002907D0606901F077
:1036B0002DFE431C5800C0180338FDD2E0217F4B7B
:1036C00002201A681140802252012A4311601968B1
:1036D000484003210140116004219A681142FCD046
:1036E0008022802192012A43090111608022520028
:1036F0005A60734B2361734B5968FF2900D85A6095
:103700000321684A6F4B116002399A681142FCD05C
:10371000E0201A681040802252011A431060186895
:103720004840032101400220116066498A68104226
:10373000FCD0802292011343802212011A60802261
:10374000614B52004A606361604B5968FF2900D8A1
:103750005A6080225E4BE16912015C4D1A600029BB
:1037600007D0606901F0D2FD431C5800C01803382F
:10377000FDD2E02255490B681A4080235B012B43A0
:103780001A60802380229B012B4312011A60802241
:10379000414B52004A60E3614E4B5968FF2900D803
:1037A0005A6080224C4B216A12014A4D1A6000294E
:1037B00007D0606901F0AAFD431C5800C018033807
:1037C000FDD2E02243490B681A4080235B012B4362
:1037D0001A60802380229B012B4312011A608023F0
:1037E00080225B004B602C4BD20223623B4B59681A
:1037F000914200D25A608022394B616A1201374DE2
:103800001A60002907D0606901F080FD431C580050
:10381000C0180338FDD2E02230490B681A408023DB
:103820005B012B431A60802380229B012B431201F2
:103830001A608023DB024B60184B6362294B5A6885
:10384000FF2A02D8802252005A608022264BA169AA
:103850001201244D1A60002907D0606901F056FD5D
:10386000431C5800C0180338FDD2E0221D490B68E4
:103870001A4080235B012B431A60802380229B0126
:103880002B4312011A6080235B004B600E4BA36137
:10389000DAE6C04698240020006CDC021BB700006A
:1038A000008000403CB0004030B00040002F68591C
:1038B00000800240008C864700C0024030800040FB
:1038C000001BB7003C800040405973075480004003
:1038D00054B000406080004060B000406C80004008
:1038E0006CB000404880004048B00040014B800070
:1038F000C058704798240020F8B5040021481D00E6
:1039000017000E0001F002FD0100380001F0FEFC7E
:10391000069B29041B0319432368002B20DB1A4B49
:103920001A4DE21853425A4180235B019C46120310
:10393000174B62441A60174B1A601700AB689F431D
:10394000FBD1C022231D92011A4321232660A060CF
:1039500013602368002BFCDA0823E1601360F8BDD4
:103960003F2322681340B342D9D1A3681B051B0D26
:103970008342D4D1EE22E368D20213408B42CED1EF
:10398000EDE7C046001BB7000040FDBF00C000408F
:1039900000E0004000F000408023024A9B00034307
:1039A000D36270470080054010B5140080221B4B85
:1039B000D2051A6000281AD00123194A1843194B5E
:1039C000DA61194A42401A62596298628022134BA6
:1039D000D2051A601549164A1160E022D2041A6015
:1039E000002C07D18022134B12061A6010BD0D4B1C
:1039F000D861EBE763011B1B9A00802312191201A7
:103A00005B049A4200D30C4A0C4B1A60054B5A6077
:103A10008022084BD2051A60E8E7C04600B0054096
:103A2000D3C007B0008005402D3FF84FFCFF0100D8
:103A30000820014000A00540FFFFFF00702D00207E
:103A4000AA23064A1B0113602F230549D360054BA7
:103A500019605368002BFCDA7047C04600400240F2
:103A600000B0FA00006002402C4B2D4A70B51A607D
:103A70002C4A2D4B2D491A6014008B689C43FBD1B6
:103A80002B4D2C4EB54208D2013E761BB60808CD10
:103A9000984723000134B342F9D1FFF7BFFD264A0E
:103AA000214B1A60214A9368DB43DB01DD09002BBF
:103AB000F9D14022214B224C224E9A675A671A674D
:103AC000DA66B44208D223682000002B20D00834E4
:103AD000FEF7C0FEB442F6D31B4E1C4CC022A168B8
:103AE000300002F027F9A660FEF7B6FBFEF766FE8F
:103AF000FFF768F8164C174EB44208D2013E361B49
:103B0000B60808CC98472B0001359E42F9D170BD0C
:103B10000834FEF791FEB442D5D3DDE700E0004063
:103B2000BFCDFBFEFE7F3C0000F0004000C0004027
:103B30008C1B00209C1B0020FFFFFF0100F00140B8
:103B40007C1B00208C1B00200000002000ED00E00A
:103B50009C1B0020A41B002000BEFDE7094A0300B7
:103B60001068002805D00849C3188B4207D8136095
:103B7000704706480449C31810608B42F7D90120EA
:103B80004042F5E73C29002000000420E42E0020FC
:103B900010B5FFF7E1FFC04610B50C0082B0190068
:103BA000002A0AD0064B0192009302002300054828
:103BB00001F00CFB0120FFF7CFFF034B1A00F2E7E7
:103BC0007C3401108C340110703C01100FB400B52E
:103BD000084883B002F012FA049B002B07D005A915
:103BE0001800019101F012FB034802F007FA0120CE
:103BF000FFF7B2FFBC3401102C3E011010B5014894
:103C0000FFF7E4FFCC3401109A4200D28854704789
:103C10007047C046F8B557464E464546DE46E0B5C5
:103C200099460A9B07009A460D9B884693461500C5
:103C30000B9E9B0710D10C9B9E420DD29D1B140026
:103C40000E005D4422004B46013431002020B8476D
:103C5000A542F7D1B0460B9E002E27D044467519D9
:103C60005346AA1B013E985D21004B46B847002EE3
:103C7000F6D123002C0098460D9B9B070FD55B4681
:103C8000E51A0C9BAB420AD94646984622004B46A1
:103C9000310020200135B8470134A845F6D820006E
:103CA000F0BCBB46B246A946A046F8BD2C00E3E7EF
:103CB000F0B54F464646D646C0B584B098460EABE2
:103CC0001B78129F994694460D9C109B119EBA0733
:103CD00025D4002E4BD19C4200D3BFE001223A40B4
:103CE00092461F2C00D9B8E00C9A551E302201E0F4
:103CF000202C03D001342A55A342F9D85246002A79
:103D00000DD0A6420BD9202C44D00C9A551E30223F
:103D100001E0202C3ED001342A55B442F9D1FA06F4
:103D20004DD57A053FD4002C39D10F9B102B00D1F3
:103D300079E00F9B022B00D18AE030230C9A0124FA
:103D400013704B46002B3FD02D230C9A1355013492
:103D50000C9B624600930397434602960194FFF73B
:103D600059FF04B0E0BCBA46B146A846F0BD0122F6
:103D700015003D40AA463A422FD04A46002A02D1B9
:103D80000C323A4200D0013E9C42BAD21F2CABD931
:103D9000202E27D92024FA06DAD57A0503D4A342A7
:103DA0002DD0A6422BD00F9B102B32D0022B20D02F
:103DB000202CCDD030220C9B1B191A700134202CE2
:103DC000C6D04B46002BBFD17B070DD43B07BFD5D8
:103DD00020230C9A13550134BAE79C429FD21F2C22
:103DE00000D881E720249AE72B230C9A135501343D
:103DF000AEE7202CACD00C9B1B1901343AE0631EBB
:103E0000012C92D00F9A102A2AD0022A2FD01C00FF
:103E1000D0E7BB060ED4202C9AD00C9B1A19013483
:103E200078231370C4E7BB060DD478230C9A0124C1
:103E30001370BFE7202C00D18AE758220C9B1B1976
:103E40001A700134B4E758230C9A01241370B1E7B7
:103E50000C9A603301241370ACE7202400265EE73F
:103E6000023CBA06E9D40C9A12191C00D8E70C9A45
:103E70009246534462221A709AE7C04610B5002851
:103E800000D110BD02F06EF8FBE7C0460B0010B584
:103E9000002802D049681B68984710BDF0B5DE467F
:103EA00057464E464546E0B59BB09B46249B894607
:103EB0009846259B0B900C924046424619009A4624
:103EC00001F0E5FC002800D0D8E001224046514630
:103ED000774B524201F0D6FC002800D0CEE0012200
:103EE00040465146734B524201F0B6FC002800D0C8
:103EF000C4E0002200234046514601F0ADFC0028FA
:103F000000D0B9E1424653460A9209938023289A89
:103F1000DB001A400E92289A1A4201D106232693FA
:103F20000A9A099B1600134300D0C7E0289B00257E
:103F300000261B0500D49BE100230D93269A0D9BC0
:103F40009A4200DC9FE1D01A431E26938023289AD0
:103F5000DB001A430023002728920D93279B00249F
:103F6000BB4200D9DC1B0223289A1A400E92289AE1
:103F7000134203D07B427B415B421C400D9B002BD4
:103F800007D00A9809992A00330001F004FC0A902E
:103F90000991002200234046514601F05DFC0028B3
:103FA00005D0802000068446099961440991289A29
:103FB000414B0B9D13400493269B0A9A0293099B45
:103FC00003940092019349465B4628000C9A00F046
:103FD0008BF90400002F62D0289B220098061F2333
:103FE000C0179843631C984649465B466530A8470E
:103FF0000D9B0025DA179C18DB0F9A465440013FB1
:1040000001E0202D13D00AAA94461F232000634408
:104010000A2101355E1901F079F930313170200043
:104020000A2101F073F926000400092EE9D80523BE
:104030000693002304930A330393534605970B9F7B
:10404000029312AB009342465B4649463800019505
:10405000FFF72EFE0E9B0400002B20D00C9BC51AF0
:10406000279BAB421BD91E0022005B4649462020FD
:104070000135B8470134AE42F6D810E0289B4246DD
:104080000493279B49460393269B0B980293534620
:10409000009201935B460C9A00F026F90400200080
:1040A0001BB0F0BCBB46B246A946A046F0BDC04618
:1040B000FFFFEF7FFFFFEFFFFFF7FFFF734B099F4E
:1040C0009C467800400D604401F0F4FB704A714B4F
:1040D00001F07BFB704A714B01F058FB3B03704AC7
:1040E0001B0B1A4304000D00300011006D4B002221
:1040F00001F047FB6C4A6D4B01F067FB02000B00BF
:104100002000290001F042FB01F0ECFB0D9001F0D2
:10411000D1FB674A674B04000D0001F056FB0022FB
:10412000654B01F033FB01F0DDFB644A0600644B94
:104130002000290001F049FB040030000D000F961B
:1041400001F0B8FB5F4A604B01F03FFB02000B003F
:104150002000290001F015FB02000B0006000F00F3
:1041600001F033FB320004000D003B003000390049
:1041700001F00CFB002210901191544B20002900FB
:1041800001F009FB0022524B01F000FB02000B0082
:104190002000290001F0FFFA00224E4B01F0F6FA50
:1041A00002000B002000290001F0F5FA0D0080212B
:1041B000040032003B000020C90501F0E2FA0200D1
:1041C0000B002000290001F0E1FA02000B0010981A
:1041D000119901F0E0FA0022314B01F0D7FA3E4B81
:1041E0000F9C9C4664440022230501F0EEFA050072
:1041F0000E0002000B000A98099901F02DFB00281F
:104200000AD00D9B2800013B31000D930022304B5A
:1042100001F0C1FA05000E00C6270D992B0063318D
:104220008F42BF4128997F420437090500D495E6A3
:10423000334300D182E6099C284A2100284B0A9882
:1042400001F018FB002808D000222100254B0A9815
:1042500001F002FB002800D070E6269B002B00D165
:104260007CE60E9B5A1E9341269AD31A269375E636
:10427000002304270D9371E643460A9380231B060F
:104280005344099342E6002326935FE601FCFFFFB7
:10429000FB799F501344D33FB3C8608B288AC63F35
:1042A0000000F03F0000F83F61436F63A787D23FF3
:1042B00071A379094F930A400000E03F1655B5BB42
:1042C000B16B0240EF39FAFE422EE63F00002C406F
:1042D0000000244000001840FF0300002D431CEBA9
:1042E000E2361A3F80842E41F0B54E46DE465746F0
:1042F0004546E0B597B09946209E219F229B834674
:10430000984607910C923B0032003000390001F0D2
:10431000BEFA002800D0A9E1012230003900CA4BC2
:10432000524201F099FA002800D0E1E00122300069
:104330003900C64B524201F0A5FA002800D0B7E080
:10434000002230003900C24B01F09CFA002800D056
:1043500099E0002230003900BE4B01F07DFA0028C0
:1043600000D090E0002200233000390001F074FA00
:10437000002800D0B1E000230D93249B5B0501D4FD
:104380000623984608AB9C4617220024302341465A
:10439000624404E0013413550139202C01D009296D
:1043A000F8D888463000390001F09CFA4346DA001C
:1043B000A94B05009B181A685B680892099301F0E5
:1043C00079FA02000B003000390001F0DAF9089A9E
:1043D000099B01F0FAF90A900B9101F0A7FA8246C5
:1043E00001F064FA02000B000A980B9901F0C9F978
:1043F00000229A4B0A900B9101F044FA002800D158
:10440000C0E001239C46E244504601F04FFA02000E
:104410000B000898099901F025FA002802D0002322
:104420009A4601354346002B6AD008AB17269C46B6
:1044300008956644554614E001235B4243440A2133
:1044400028009A4600F062FF013430313719397084
:1044500028000A2100F05AFF092D00D8D0E0D046EC
:104460000500202CE8D10EAB98460323249A134074
:10447000012B00D196E02023249A01930392239AE2
:10448000434602921EE0249B58460493239B0096C9
:104490000197039343460C9A029307994B46FFF703
:1044A000FDFC17B0F0BCBB46B246A946A046F0BD25
:1044B000249B5B070ED40322694B2499019203913C
:1044C00023990291009358464B460C9A0799FFF79F
:1044D000A1FBE6E70422634BEFE73B00320000203C
:1044E000002101F04EF9012306000F000D9344E76F
:1044F000249B0393239B0293042301935A4BE1E7EC
:10450000280001F0D7F902000B003000390001F05B
:1045100038F9524B002206000F0001F09DF90EAB56
:10452000984600280AD10022300039004B4B01F098
:10453000A9F9002802D1EB0700D50135202C94D031
:1045400008AA94461723280063440A2101341E193F
:1045500000F0B4FE3031280031700A2100F0AEFEC8
:10456000051EEBD10323249A1340012B1BD0202CD2
:1045700000D180E70D9B002B35D02D224146631CD6
:104580000A5579E700220A980B99344B01F064F937
:10459000002800D046E75346002B51D101239C460A
:1045A000E2443FE72024239B002BE0D00D9B002B0F
:1045B00003D1249A0C33134202D0239B013B239353
:1045C000239BA342D3D908AB9C46172230236244D5
:1045D000202C00D14FE72399013413558C42C6D0CB
:1045E000202CF8D147E7249B5B0724D4249A23008E
:1045F000120700D440E72022414601330A553BE729
:104600005746089D202C00D12DE72200302140463E
:10461000002F09D00132B154202A00D123E7D3431F
:104620001B191B18002BF5D10EAB98462E234146C3
:10463000541C8B5482E72B224146631C0A551BE70E
:10464000DB0700D4EEE6A9E7FFFFEFFFFFFFEF7FF8
:1046500065CDCD4165CDCDC1D03601100000E03F24
:10466000D8340110DC340110E8340110249B03938A
:10467000239B029303230193004B23E7E4340110AF
:10468000F0B5DE464E4657464546E0B59FB01C00A5
:10469000289B91460993C94AC94B8B4608901A60DA
:1046A000002900D118E2002320789A46002800D182
:1046B0001AE226001D005C460AE02A006F1C4B46E9
:1046C000089D2100A8473D0001363078002870D0B1
:1046D0002528F2D110239B46083B9A46043B984676
:1046E000023B00219C46721C107816000300203B00
:1046F000DBB2102B03D8B34F9B00FB589F4603003F
:10470000303B092B32D900230A932A2868D0002392
:1047100098462E283ED00300683BDBB2122B1CD8F3
:10472000A94A9B00D3589F46012301321943DBE776
:10473000634601321943D7E7434601321943D3E7B1
:104740005B4601321943CFE7534601321943CBE7A9
:1047500080235B007078194301360300253BDBB2F0
:10476000532BAAD8994A9B00D3589F460027030091
:10477000B800C01901364000C018337830381A002C
:10478000303A0700092AF3D90A9018000023984606
:104790002E28C0D180237078DB0019430300303B02
:1047A000721C092B00D8A1E12A2800D1B2E1160021
:1047B000B1E7A346AA462C00D14503D801235B42AA
:1047C0004B449A464B46524659460020089DA847FE
:1047D00020001FB0F0BCBB46B246A946A046F0BDC3
:1047E000099B40CB0A96002E03DB50780993561C98
:1047F0008DE72838014370420A9009935078561C7F
:1048000085E7782800D1DFE1582800D14CE26F28F5
:1048100000D14FE3622801D100F030FC10230A00E0
:104820009A430B92692801D000F0A9FC0A230C934B
:104830004B0500D5D0E10B9A802311009B00194055
:104840008B461A4200D0A1E2802311005B00194080
:104850008A461A4200D0B6E313005B0600D5EDE2AB
:10486000130009991B0601D400F076FC08C91BB29D
:10487000D8171A18424092B209919346DA0F129251
:10488000002B09D1802310220B99DB000B409143B0
:104890000B91002B00D0E4E20B9A6123920600D525
:1048A00041230EA91F228C46DBB262440A3B5F46BD
:1048B0001395A34655460C9CB2460D9316000AE08C
:1048C0003033DBB201357355A74200D2EDE2202D23
:1048D00000D1EAE207002100380000F017FDCBB25A
:1048E0000929EDD90D9A94466344DBB2EAE78023A7
:1048F0009B007078194301362FE77078682800D143
:10490000CDE180230136194327E770786C2800D168
:10491000BFE180235B00194301361EE7462800D122
:104920009BE10722099B0491073393430A9A1900DC
:104930000392424602920CC9089800920193099191
:104940002A004B462100FFF7CFFC01360500BCE6EC
:104950002A006F1C4B46089D21002520A8470136E0
:104960003D00B2E68B0700D4ADE1099B2A009A46D0
:104970006B1C9846534601CB21009A46089F4B4634
:10498000C0B2B8470A9B9C466544012B00D886E21A
:10499000089B4746B04626004C4699463A002300FD
:1049A000013731002020C847AF42F7D1A146534616
:1049B000340046460993013687E6C046814600101A
:1049C000482D0020F03401103435011080350110DD
:1049D000099B04CB9B4643460992002B00D1C6E0BD
:1049E00013789C46002B00D1BDE34346013B099A56
:1049F0000133D0180A9F130001E0834203D05A7894
:104A00000133002AF9D1099A0A979B1A0B93802344
:104A10000A00DB001A400C92194204D00B9B43455C
:104A200001D943460B9302231A000A400D920B4210
:104A300000D187E16046002800D168E10C9B002B83
:104A400000D10DE1A844C246099B57465B1B98461E
:104A5000089BB2462A0026004C46994609E02300EE
:104A60003100551CC8474346585D002800D126E157
:104A70002A009742F3D1A1463D00340056460D9BD3
:104A8000002B00D043E15B46013609931DE6099BEC
:104A90001A0008CA9246002B48D0212211438B46A7
:104AA0000EA884461F216144099500220F27A446C1
:104AB0000D0002E0202A0CD00B003C001C4020001E
:104AC0003730092C00D807380132A85419090F2BA8
:104AD000F0D86446099D32E0DC4B2078089300232F
:104AE0009A46002800D0E4E5002465E64346060027
:104AF0000A9F9800C0180132400080191678030000
:104B000030003038303B0928F3D930009846160081
:104B10000A9700E6099B023604CB9046D2434046F2
:104B2000D2171040804609933078F4E5102208002F
:104B3000904311321043834600224905B0D55B46AD
:104B400006930823059343460493102303930023FD
:104B5000029316AB019200932A004B46210008985D
:104B6000FFF7A6F85346050001360993ADE5137823
:104B70009C46002B00D1F7E202235B4237E720235B
:104B800002009A43472A04D180231B0119430223C0
:104B90009843452801D1202319430722099B0491FA
:104BA000073393430A9A19000392424602920CC9B2
:104BB00008980092019309912A004B462100FFF7C3
:104BC0006DF90136050080E510230C930C230A00D3
:104BD0009A430B924B0503D501230B9A9A430B92F0
:104BE000692800D127E6642800D124E60B9A8023A7
:104BF00011009B0019408B461A4200D066E18023C9
:104C000011005B0019408A461A4200D039E21300B5
:104C10005B0600D53CE113001B0600D4A6E2099B0D
:104C200004CB1204120C934609935B46002B00D070
:104C30009AE10B9A1033110099430B91520500D45D
:104C400092E100239A460B9B06930A9B05934346E9
:104C500004930C9B039300230CE12023194360E68B
:104C6000099B0A9A5B1B98464B4691461F00B24629
:104C70002600089C2A003B003100A047434601352E
:104C8000585D0028F6D14A463400B94656460A9285
:104C9000F5E6C0239B00B078194302365DE5C023DA
:104CA000B0781943023658E50C230A009A431433AE
:104CB0001A43103B0B920C934B058DD496E7A146FB
:104CC00034005646DBE60A9A012A00D853E26B1EEE
:104CD0009F18089BB04626004C4699462A002300A0
:104CE000013531002020C847BD42F7D1A14634002C
:104CF0004646099B3A0001CB210098467D1C4B4655
:104D0000089FC0B2B847434601360993DDE40B9BC8
:104D10000A9AA8469A4200D8B5E694466544ED1A28
:104D2000089B4746B04626004C4699463A00230069
:104D3000013731002020C847AF42F7D1A1463400E7
:104D40004646A0E60B9A0A99531C914200D814E2F9
:104D50004B199B1A1F00089BB24626004C469946E9
:104D60002A002300013531002020C847BD42F7D179
:104D70000A9BA14601330B93099B34001B785646CE
:104D80009C466046002800D058E67CE60722099B36
:104D900007339343013294469C4462465F6809920C
:104DA0001A68FB1710931193109811990300534040
:104DB0000E930B007B400F9394460E9A0F9B121A92
:104DC0008B410E920F93FB0F6246129300233A43DE
:104DD0009B463DD00B9A6123920600D541230022C9
:104DE000DBB20EA90A3B8C4692460D9343461F3216
:104DF00062441395159655460E9E0F9FA246904607
:104E00000C9C14930CE03032D2B2434601355A5513
:104E1000BB4500D18AE1202D00D18AE106000F00B8
:104E2000220000233000390000F0AEFAD2B2092A85
:104E3000E9D90D9B9C466244D2B2E6E7FF2309996B
:104E400004C913401A00099117E5C046113C00102F
:104E50000B9A1033110099430B915205BAD50023D8
:104E60009A460B9B06930A9B0593434604930C9B1F
:104E70000393129B02935346019316AB2A000093AF
:104E800021004B460898FEF713FF013605001CE48D
:104E9000FF22099B02CB11408B460993C5E653467E
:104EA000454609930136FFF710FC56465C46AA4674
:104EB000139DD6E708230C930B910B99642800D01F
:104EC00084E60B9B5B0500D586E6B4E40722099BCC
:104ED00007339343013294469C44624609921A6810
:104EE0005B6810009B4613005A46134307D10B9A88
:104EF0001033110099430B91520500D5A1E60B9A8E
:104F00006123920600D541230022DBB20EA90A3BA1
:104F10008C4692460D9343461F3262445F4612957B
:104F2000A34655460400B24690460C9E13930DE0EE
:104F30003032D2B2434601355A550023BB4200D12C
:104F400000E1202D00D100E104000F003200002319
:104F50002000390000F018FAD2B2092AE8D90D9BD6
:104F60009C466244D2B2E5E70B9A6123920600D5D3
:104F70004123DBB20EA90A3B1F228C460D9323006E
:104F800062445C461295170055469B46B2460C9EFD
:104F900008E03033DBB201357B55B4420ED3202D0F
:104FA0000CD004003100200000F0B0F9CBB2092988
:104FB000EFD90D9A94466344DBB2ECE756465C4663
:104FC000AA46129D3FE6099B1A0008CAD9171392F8
:104FD0005A184A409246DA0F1292002B08D18023C9
:104FE00010220B99DB000B4091430B91002B2BD12E
:104FF0000B9A6123920600D541230EAA1F279446DF
:10500000DBB20A3B0D9567445D460993A3465446BF
:10501000B2460C9E08E03033DBB201357B55B4421A
:105020000ED3202D0CD004003100200000F06EF9CA
:10503000CBB20929EFD9099A94466344DBB2ECE775
:1050400056465C46AB460D9D0B9B2A0006930A9B79
:1050500021000593434604930C9B08980393129BED
:10506000013602935B46019316AB00934B46FEF765
:105070001FFE139B05000993FFF727FB02230C93E8
:105080001AE7099B04CB92461293002A08D1802389
:1050900010220B99DB000B4091430B91002B2BD17D
:1050A0000B9A6123920600D541230EAA1F2794462E
:1050B000DBB20A3B0D9567445D460993A34654460F
:1050C000B2460C9E08E03033DBB201357B55B4426A
:1050D0000ED3202D0CD004003100200000F016F972
:1050E000CBB20929EFD9099A94466344DBB2ECE7C5
:1050F00056465C46AB460D9D0B9B2A0006930A9BC9
:1051000021000593434604930C9B089803930023C6
:1051100002935B46019316AB00934B46FEF7C8FD26
:10512000129B050009930136FFF7CFFAB44200D86D
:1051300071E6149B54460E960F97AA469846159E04
:10514000139D8EE6A64200D8FBE6139B5646984672
:10515000AA465C46129D76E508C9D8171A1842403F
:105160000991FFF78AFB00230B9350E4099B04CBC2
:105170009346099359E52F00BBE50B9301E6063BE7
:105180000C939AE60CB410B584B006AC08CC0A00B7
:105190000094010004480394FFF772FA04B010BCB5
:1051A00008BC02B01847C046093C001000B585B0E5
:1051B0000391012102900093034813004A4202A97F
:1051C000FFF75EFA05B000BD8D3E00100FB410B5BC
:1051D0000C4984B006AA08CA0C680392002C0BD0B4
:1051E000009201220848524202A9A047012004B0BF
:1051F00010BC08BC04B01847180000F0FFFE0020E7
:10520000F5E7C046482D00207D3E001010B5094A44
:105210000300146884B0002C08D0012200910648D5
:10522000524203A9A047012004B010BD00F0E6FEE1
:105230000020F9E7482D00207D3E001001480421A0
:10524000014B1847F010002079520010014B9B6869
:1052500018470000F0100020142310B50100188832
:1052600004331B88984710BD162310B50100188819
:1052700002331B88984710BDF8B54746CE4680B527
:105280000F1E19D01423994604330400002501266B
:1052900098464B461888434621681B88984701C4A6
:1052A000431E9841013540420640AF42F1D13000E3
:1052B000C0BCB946B046F8BD0126F8E7124A936F64
:1052C0009B0815D29066D166002905D0FFE7FFE75D
:1052D000FFE7516F106F704704B580210906C217B0
:1052E0005140002800D0C8430DF0BEFF002104BD8E
:1052F000F0B5146E556E576F166FFFF7E3FF146627
:10530000556657671667F0BD000000D0114A936FCD
:105310009B0813D210665166002905D0FFE7FFE70E
:10532000FFE7516F106F704704B5002801D00020CF
:10533000C0430DF099FF002104BDC046F0B5146EC6
:10534000556E576F166FFFF7E5FF14665566576782
:105350001667F0BD000000D094464A4A926F92084A
:10536000624601D228E0C046F0B5464E346E756EF6
:10537000776F366F00F020F89446424A14665566FF
:10538000576716676246F0BD94463E4A926F920890
:10539000624601D254E0C046F0B53A4E346E756EA6
:1053A000776F366F00F04CF89446364A14665566AF
:1053B000576716676246F0BD002B24DB11D0002929
:1053C0003EDA00B5C943404200D1013100F038F85F
:1053D000C943404200D10131DB43524200D1013385
:1053E00000BD002AEBD1002801D1002905D0002002
:1053F000C90FC90701D1C043410800B50DF01CFF1A
:105400000022002300BD00B500290ADBDB43524225
:1054100000D1013300F014F8C943404200D10131FA
:1054200000BDC943404200D10131DB43524200D1AB
:10543000013300F005F8DB43524200D1013300BDD7
:10544000002923D1002B18D1002A0CD0BC460D4FC7
:1054500038667A6600210023FFE7FFE7FFE77A6FEF
:10546000386F67467047002801D00748010000B533
:105470000DF0E2FE0022002300BD02000B00002020
:1054800000217047000000D0FFFFFFFF002B00D07D
:10549000BFE0130C28D1002AE7D080B4114F396641
:1054A0007A66FFE7FFE730B4040C7B6F396F1B04AB
:1054B00023433B667A66FFE7FFE7FFE7C04684B217
:1054C0007B6F3D6F1B0423433B667A66FFE7FFE774
:1054D000C04600232C042D0C7A6F386F00196941E7
:1054E000B0BC7047000000D0F0B594460025140E03
:1054F00001D112020835140F01D112010435940FA5
:1055000001D192000235D40F01D152000135D40BE4
:105510000134254F7C66254C3C660E0C93B2FFE7A8
:10552000FFE7FFE73C6F6643360C7703BE467343E5
:10553000DF0B5B04C01AB941130C7343DB18C91AA3
:10554000CE086643360CB64493B273431F0F1B015B
:10555000C01AB941130C73431F0B1B05C01AB94184
:10556000860D8F023E436643360C092D24DB520A1A
:105570007243801A7703460A6643360C16235B1B78
:10558000DE40DF40BF1964466643821B7046043527
:1055900006330100D940A840C01900D30131A2420E
:1055A00006D20023F0BD0000000000D0FFFFFFFF87
:1055B000121B0130F3D3F1E709277F1BFE4064463D
:1055C000A2B27243801A00D20139220C7243130C2A
:1055D0001204821A99410B007046043513370100FA
:1055E000F940A840801900D30131002B02D1A2421A
:1055F0000AD2F0BD013000D30131121BFAD2013BB7
:10560000F8D1A24200D2F0BD013000D30131121B0B
:10561000F7E7F0B51C0C00D080E00CB400251C0AA4
:1056200004D11B02160E3343120208351C0B04D1A1
:105630001B01160F3343120104359C0B04D19B0050
:10564000960F334392000235DC0B02D192185B4176
:1056500001351C00971864410134464F7C66464C66
:105660003C660E0CFFE7FFE7FFE7C0463C6F664372
:10567000360C7703BE4697B27743C01B00D2013980
:10568000C01B00D201399FB27743C91BC91B170C3D
:1056900077437E04FF0B801BB941CE086643360C6E
:1056A0000C2D33DBB644120B1F053A431B0B97B28C
:1056B0007743C01B00D201399FB27743C91B170C37
:1056C00077433E043F0C801BB941860D8F023E4359
:1056D000664329277F1BFE400C3D7746AF40BF192C
:1056E00030BCA2B2ABB272437343801A9941220C10
:1056F0007243130C1204801A994102000B00013707
:10570000001BA941F9D2781E0021F0BD0C277F1B98
:10571000FE4077467F0BAF40FF19E0E700245D1C99
:1057200007D0144F7D663966FFE7FFE7FFE7FFE725
:105730003C6F95B29EB265436643401BB141150C68
:105740001E0C6543664336042F0C3E432D04401B5C
:10575000B141994204D202000B0020000021F0BDAB
:1057600001D19042F7D3801A994101349942F2D382
:10577000F6E70000000000D0FFFFFFFF4840414077
:10578000484018B4134B5B68019308BD18B4114B23
:105790001B68019308BD94460F4A926F920805D288
:1057A000624618B40B4BDB68019308BD0A4AF0B59A
:1057B000146E556E576F166F6246FFF7F2FF064A7A
:1057C0001466556657671667F0BD18B4014B9B68A1
:1057D000019308BD501D0020000000D0FFB55040CF
:1057E0004240504059404B40594000E0FFB5154FF2
:1057F0004C00640D03D0BC4204D10C0314D800202B
:10580000090D09055C00640D03D0BC4204D11C03E2
:105810000AD800221B0D1B0501264B4009D44B4022
:1058200003D58B4200D18242FFBD9942FCD1904208
:10583000FFBD0B43DB1803431343F5D0C94349189D
:10584000FFBD0000FF07000000B5FFF7CFFF01D04C
:10585000002000BD012000BD00B5FFF7C7FF80415B
:1058600000BDC04600B5FFF7C1FF01D9002000BD53
:10587000012000BD00B5FFF7B1FF01D9002000BD38
:10588000012000BD00B5FFF7A9FF804100BD012048
:1058900040054A00121804D85A00121801D80020F6
:1058A0007047012070470020704700000021002849
:1058B00005D17047C1174840401AFAD0C90713B53F
:1058C000064B1B6898470CBC441CA2401005120BE9
:1058D0000349091B09051943114310BD9C2D0020E4
:1058E0001F04000010B54C00620D8023D218DB00AD
:1058F000D21A5B057E2A10DD9E3A13DACC17090313
:10590000490819435242D140640001341532202A1B
:1059100005DAD0400843604310BD002010BD0846A2
:10592000604310BDC80FC018013810BD18B4024B39
:105930005B6A019308BD0000501D002018B4024BA3
:10594000DB6D019308BD0000501D002018B4024B10
:10595000DB6F019308BD0000501D002010B5014809
:10596000FEF734F920370110132370B51D78012D8F
:1059700011D035DD1C48FFF777FC1C4C010080225C
:10598000200000F0D7F9022D27D01948FFF764FC5A
:10599000184B186070BD184B144C23606360A360F3
:1059A000E36023616361A361E36123626362A362D5
:1059B000E36223636363A363E36323646364A364B5
:1059C000E36423656365A365E36523666366A36695
:1059D000E36623676367A367E367084BA364D4E7C1
:1059E000024C064BA364D0E753440000501D002036
:1059F0004C3300009C2D00205D590010015A00100E
:105A000007B5604601880A0A0230DF2AFAD1C9B216
:105A1000820804D3028840880004104300E0006834
:105A2000014A5050039007BD501D0020514343438D
:105A3000C9188C46110C83B24B4310B4040C61435B
:105A400092B280B2504362431C041B0C001910BC7C
:105A500059411304120CC0185141614470470000B1
:105A60004840414048400E4B5B6818470C4B1B6850
:105A700018470C4A936F9B0802D2094BDB68184702
:105A8000F0B5146E556E576F166FFFF7F6FF054AA7
:105A90001466556657671667F0BD014B9B6818473B
:105AA000A02D0020000000D007B5484041404840EC
:105AB00001E0C04607B54200120E03D0FF2A03D111
:105AC000420218D8C00DC0054A00120E03D0FF2AAA
:105AD00003D14A020FD8C90DC9050122414005D49E
